{
  "contractName": "Vidas",
  "abi": [
    {
      "constant": true,
      "inputs": [
        {
          "name": "",
          "type": "uint256"
        }
      ],
      "name": "vidas",
      "outputs": [
        {
          "name": "id",
          "type": "uint256"
        },
        {
          "name": "userId",
          "type": "string"
        },
        {
          "name": "vida",
          "type": "int256"
        }
      ],
      "payable": false,
      "stateMutability": "view",
      "type": "function",
      "signature": "0x1e736ec8"
    },
    {
      "constant": true,
      "inputs": [],
      "name": "vidaCount",
      "outputs": [
        {
          "name": "",
          "type": "uint256"
        }
      ],
      "payable": false,
      "stateMutability": "view",
      "type": "function",
      "signature": "0x3b0f6dce"
    },
    {
      "anonymous": false,
      "inputs": [
        {
          "indexed": false,
          "name": "id",
          "type": "uint256"
        },
        {
          "indexed": false,
          "name": "userId",
          "type": "string"
        },
        {
          "indexed": false,
          "name": "vida",
          "type": "int256"
        }
      ],
      "name": "VidaCreada",
      "type": "event",
      "signature": "0x73aab6e0f0b87415cf979860f558d5d4a8202b13ccb5cad82f308ebce765e52f"
    },
    {
      "anonymous": false,
      "inputs": [
        {
          "indexed": false,
          "name": "id",
          "type": "uint256"
        },
        {
          "indexed": false,
          "name": "vida",
          "type": "int256"
        }
      ],
      "name": "VidaModificada",
      "type": "event",
      "signature": "0x7fca3775f7445f8da1bb0f5ee1d591717d71a2dad5e7f34850c7765c786131ad"
    },
    {
      "constant": false,
      "inputs": [
        {
          "name": "_userId",
          "type": "string"
        },
        {
          "name": "_vida",
          "type": "int256"
        }
      ],
      "name": "crearVida",
      "outputs": [],
      "payable": false,
      "stateMutability": "nonpayable",
      "type": "function",
      "signature": "0x4d07157d"
    },
    {
      "constant": false,
      "inputs": [
        {
          "name": "_id",
          "type": "uint256"
        },
        {
          "name": "_vida",
          "type": "int256"
        }
      ],
      "name": "modificarVida",
      "outputs": [],
      "payable": false,
      "stateMutability": "nonpayable",
      "type": "function",
      "signature": "0xbafc9319"
    },
    {
      "constant": true,
      "inputs": [
        {
          "name": "_id",
          "type": "uint256"
        }
      ],
      "name": "getVida",
      "outputs": [
        {
          "name": "",
          "type": "int256"
        }
      ],
      "payable": false,
      "stateMutability": "view",
      "type": "function",
      "signature": "0xbfcbd2cd"
    }
  ],
  "bytecode": "0x60806040526000805534801561001457600080fd5b50610742806100246000396000f3fe60806040526004361061006d576000357c0100000000000000000000000000000000000000000000000000000000900463ffffffff1680631e736ec8146100725780633b0f6dce146101345780634d07157d1461015f578063bafc931914610231578063bfcbd2cd14610276575b600080fd5b34801561007e57600080fd5b506100ab6004803603602081101561009557600080fd5b81019080803590602001909291905050506102c5565b6040518084815260200180602001838152602001828103825284818151815260200191508051906020019080838360005b838110156100f75780820151818401526020810190506100dc565b50505050905090810190601f1680156101245780820380516001836020036101000a031916815260200191505b5094505050505060405180910390f35b34801561014057600080fd5b50610149610387565b6040518082815260200191505060405180910390f35b34801561016b57600080fd5b5061022f6004803603604081101561018257600080fd5b810190808035906020019064010000000081111561019f57600080fd5b8201836020820111156101b157600080fd5b803590602001918460018302840111640100000000831117156101d357600080fd5b91908080601f016020809104026020016040519081016040528093929190818152602001838380828437600081840152601f19601f8201169050808301925050505050505091929192908035906020019092919050505061038d565b005b34801561023d57600080fd5b506102746004803603604081101561025457600080fd5b8101908080359060200190929190803590602001909291905050506104b6565b005b34801561028257600080fd5b506102af6004803603602081101561029957600080fd5b810190808035906020019092919050505061062f565b6040518082815260200191505060405180910390f35b6001602052806000526040600020600091509050806000015490806001018054600181600116156101000203166002900480601f0160208091040260200160405190810160405280929190818152602001828054600181600116156101000203166002900480156103775780601f1061034c57610100808354040283529160200191610377565b820191906000526020600020905b81548152906001019060200180831161035a57829003601f168201915b5050505050908060020154905083565b60005481565b600080815480929190600101919050555060606040519081016040528060005481526020018381526020018281525060016000805481526020019081526020016000206000820151816000015560208201518160010190805190602001906103f692919061064f565b50604082015181600201559050507f73aab6e0f0b87415cf979860f558d5d4a8202b13ccb5cad82f308ebce765e52f60005483836040518084815260200180602001838152602001828103825284818151815260200191508051906020019080838360005b8381101561047657808201518184015260208101905061045b565b50505050905090810190601f1680156104a35780820380516001836020036101000a031916815260200191505b5094505050505060405180910390a15050565b6104be6106cf565b600160008481526020019081526020016000206060604051908101604052908160008201548152602001600182018054600181600116156101000203166002900480601f0160208091040260200160405190810160405280929190818152602001828054600181600116156101000203166002900480156105805780601f1061055557610100808354040283529160200191610580565b820191906000526020600020905b81548152906001019060200180831161056357829003601f168201915b5050505050815260200160028201548152505090508181604001818152505080600160008581526020019081526020016000206000820151816000015560208201518160010190805190602001906105d992919061064f565b50604082015181600201559050507f7fca3775f7445f8da1bb0f5ee1d591717d71a2dad5e7f34850c7765c786131ad838260400151604051808381526020018281526020019250505060405180910390a1505050565b600060016000838152602001908152602001600020600201549050919050565b828054600181600116156101000203166002900490600052602060002090601f016020900481019282601f1061069057805160ff19168380011785556106be565b828001600101855582156106be579182015b828111156106bd5782518255916020019190600101906106a2565b5b5090506106cb91906106f1565b5090565b6060604051908101604052806000815260200160608152602001600081525090565b61071391905b8082111561070f5760008160009055506001016106f7565b5090565b9056fea165627a7a72305820c1376a651f2e47b01444e93dd7178f027644b66fa328aa377330c05971897b9b0029",
  "source": "pragma solidity^0.5.0;\r\n\r\ncontract Vidas{\r\n    uint public vidaCount = 0;\r\n\r\n    struct Vida {\r\n        uint id;\r\n        string userId;\r\n        int vida;\r\n    }\r\n    mapping(uint => Vida) public vidas;\r\n\r\n    event VidaCreada(\r\n        uint id,\r\n        string userId,\r\n        int vida\r\n    );\r\n\r\n    event VidaModificada(\r\n        uint id,\r\n        int vida\r\n    );\r\n\r\n    function crearVida(string memory _userId, int _vida) public{\r\n        vidaCount++;\r\n        vidas[vidaCount] = Vida(vidaCount, _userId, _vida);\r\n        emit VidaCreada(vidaCount, _userId, _vida);\r\n    }\r\n\r\n    function modificarVida(uint _id, int _vida)public{\r\n        Vida memory _Vida = vidas[_id];\r\n        _Vida.vida = _vida;\r\n        vidas[_id] = _Vida;\r\n        emit VidaModificada(_id, _Vida.vida);\r\n    }\r\n\r\n    function getVida(uint _id) public view returns (int){\r\n        return vidas[_id].vida;\r\n    }\r\n}",
  "sourcePath": "C:/Users/lordc/OneDrive/Desktop/server/Project_vang/blockchain/contracts/Vidas.sol",
  "compiler": {
    "name": "solc",
    "version": "0.5.0+commit.1d4f565a.Emscripten.clang"
  },
  "schemaVersion": "3.0.1",
  "updatedAt": "2019-12-16T03:49:39.171Z",
  "devdoc": {
    "methods": {}
  },
  "userdoc": {
    "methods": {}
  }
}